{
  "contractName": "TestBuilder",
  "abi": [
    {
      "inputs": [
        {
          "internalType": "contract ISeedToken",
          "name": "_SEED",
          "type": "address"
        }
      ],
      "stateMutability": "nonpayable",
      "type": "constructor"
    },
    {
      "anonymous": false,
      "inputs": [
        {
          "indexed": true,
          "internalType": "address",
          "name": "from",
          "type": "address"
        },
        {
          "indexed": false,
          "internalType": "uint256",
          "name": "amount",
          "type": "uint256"
        }
      ],
      "name": "Stake",
      "type": "event"
    },
    {
      "anonymous": false,
      "inputs": [
        {
          "indexed": true,
          "internalType": "address",
          "name": "from",
          "type": "address"
        },
        {
          "indexed": false,
          "internalType": "uint256",
          "name": "amount",
          "type": "uint256"
        }
      ],
      "name": "Unstake",
      "type": "event"
    },
    {
      "anonymous": false,
      "inputs": [
        {
          "indexed": true,
          "internalType": "address",
          "name": "from",
          "type": "address"
        }
      ],
      "name": "YieldWithdraw",
      "type": "event"
    },
    {
      "inputs": [],
      "name": "ONE",
      "outputs": [
        {
          "internalType": "contract ERC20",
          "name": "",
          "type": "address"
        }
      ],
      "stateMutability": "view",
      "type": "function"
    },
    {
      "inputs": [],
      "name": "SEED",
      "outputs": [
        {
          "internalType": "contract ISeedToken",
          "name": "",
          "type": "address"
        }
      ],
      "stateMutability": "view",
      "type": "function"
    },
    {
      "inputs": [],
      "name": "getHouses",
      "outputs": [
        {
          "internalType": "uint256",
          "name": "",
          "type": "uint256"
        }
      ],
      "stateMutability": "view",
      "type": "function"
    },
    {
      "inputs": [],
      "name": "getIsStaking",
      "outputs": [
        {
          "internalType": "bool",
          "name": "",
          "type": "bool"
        }
      ],
      "stateMutability": "view",
      "type": "function"
    },
    {
      "inputs": [],
      "name": "getMap",
      "outputs": [
        {
          "internalType": "uint8[81]",
          "name": "",
          "type": "uint8[81]"
        }
      ],
      "stateMutability": "view",
      "type": "function"
    },
    {
      "inputs": [],
      "name": "getStaked",
      "outputs": [
        {
          "internalType": "uint256",
          "name": "",
          "type": "uint256"
        }
      ],
      "stateMutability": "view",
      "type": "function"
    },
    {
      "inputs": [
        {
          "internalType": "uint8",
          "name": "_pos",
          "type": "uint8"
        }
      ],
      "name": "getStakedTime",
      "outputs": [
        {
          "internalType": "uint256",
          "name": "",
          "type": "uint256"
        }
      ],
      "stateMutability": "view",
      "type": "function"
    },
    {
      "inputs": [
        {
          "internalType": "uint256",
          "name": "_sId",
          "type": "uint256"
        }
      ],
      "name": "getStructure",
      "outputs": [
        {
          "components": [
            {
              "internalType": "uint256",
              "name": "price",
              "type": "uint256"
            },
            {
              "internalType": "uint256",
              "name": "time",
              "type": "uint256"
            },
            {
              "internalType": "uint256",
              "name": "rate",
              "type": "uint256"
            }
          ],
          "internalType": "struct Builder.Structure",
          "name": "",
          "type": "tuple"
        }
      ],
      "stateMutability": "view",
      "type": "function"
    },
    {
      "inputs": [
        {
          "internalType": "address",
          "name": "",
          "type": "address"
        }
      ],
      "name": "housesCount",
      "outputs": [
        {
          "internalType": "uint256",
          "name": "",
          "type": "uint256"
        }
      ],
      "stateMutability": "view",
      "type": "function"
    },
    {
      "inputs": [
        {
          "internalType": "uint8",
          "name": "_pos",
          "type": "uint8"
        }
      ],
      "name": "isReadyForWithdraw",
      "outputs": [
        {
          "internalType": "bool",
          "name": "",
          "type": "bool"
        }
      ],
      "stateMutability": "view",
      "type": "function"
    },
    {
      "inputs": [
        {
          "internalType": "address",
          "name": "",
          "type": "address"
        }
      ],
      "name": "isStaking",
      "outputs": [
        {
          "internalType": "bool",
          "name": "",
          "type": "bool"
        }
      ],
      "stateMutability": "view",
      "type": "function"
    },
    {
      "inputs": [
        {
          "internalType": "address",
          "name": "",
          "type": "address"
        },
        {
          "internalType": "uint256",
          "name": "",
          "type": "uint256"
        }
      ],
      "name": "map",
      "outputs": [
        {
          "internalType": "uint8",
          "name": "",
          "type": "uint8"
        }
      ],
      "stateMutability": "view",
      "type": "function"
    },
    {
      "inputs": [],
      "name": "owner",
      "outputs": [
        {
          "internalType": "address",
          "name": "",
          "type": "address"
        }
      ],
      "stateMutability": "view",
      "type": "function"
    },
    {
      "inputs": [
        {
          "internalType": "uint8",
          "name": "_pos",
          "type": "uint8"
        },
        {
          "internalType": "uint8",
          "name": "_sId",
          "type": "uint8"
        }
      ],
      "name": "placeStructure",
      "outputs": [
        {
          "internalType": "bool",
          "name": "",
          "type": "bool"
        }
      ],
      "stateMutability": "payable",
      "type": "function"
    },
    {
      "inputs": [
        {
          "internalType": "uint8",
          "name": "_pos",
          "type": "uint8"
        }
      ],
      "name": "removeStructure",
      "outputs": [
        {
          "internalType": "bool",
          "name": "",
          "type": "bool"
        }
      ],
      "stateMutability": "nonpayable",
      "type": "function"
    },
    {
      "inputs": [
        {
          "internalType": "address",
          "name": "",
          "type": "address"
        }
      ],
      "name": "staked",
      "outputs": [
        {
          "internalType": "uint256",
          "name": "",
          "type": "uint256"
        }
      ],
      "stateMutability": "view",
      "type": "function"
    },
    {
      "inputs": [
        {
          "internalType": "address",
          "name": "",
          "type": "address"
        },
        {
          "internalType": "uint256",
          "name": "",
          "type": "uint256"
        }
      ],
      "name": "stakedTime",
      "outputs": [
        {
          "internalType": "uint256",
          "name": "",
          "type": "uint256"
        }
      ],
      "stateMutability": "view",
      "type": "function"
    },
    {
      "inputs": [
        {
          "internalType": "uint256",
          "name": "",
          "type": "uint256"
        }
      ],
      "name": "structures",
      "outputs": [
        {
          "internalType": "uint256",
          "name": "price",
          "type": "uint256"
        },
        {
          "internalType": "uint256",
          "name": "time",
          "type": "uint256"
        },
        {
          "internalType": "uint256",
          "name": "rate",
          "type": "uint256"
        }
      ],
      "stateMutability": "view",
      "type": "function"
    },
    {
      "inputs": [
        {
          "internalType": "uint8",
          "name": "_pos",
          "type": "uint8"
        },
        {
          "internalType": "uint8",
          "name": "_sId",
          "type": "uint8"
        }
      ],
      "name": "withdrawTileYield",
      "outputs": [
        {
          "internalType": "bool",
          "name": "",
          "type": "bool"
        }
      ],
      "stateMutability": "nonpayable",
      "type": "function"
    },
    {
      "inputs": [
        {
          "internalType": "uint256",
          "name": "_stkTime",
          "type": "uint256"
        },
        {
          "internalType": "uint8",
          "name": "_sId",
          "type": "uint8"
        }
      ],
      "name": "test_calculateReward",
      "outputs": [],
      "stateMutability": "view",
      "type": "function"
    },
    {
      "inputs": [
        {
          "internalType": "uint256",
          "name": "_start",
          "type": "uint256"
        },
        {
          "internalType": "uint256",
          "name": "_bound",
          "type": "uint256"
        }
      ],
      "name": "test_calculateYieldTime",
      "outputs": [],
      "stateMutability": "view",
      "type": "function"
    }
  ],
  "bytecode": "0x60806040523480156200001157600080fd5b5060405162001f9c38038062001f9c83398181016040528101906200003791906200011e565b80336000806101000a81548173ffffffffffffffffffffffffffffffffffffffff021916908373ffffffffffffffffffffffffffffffffffffffff16021790555080600860006101000a81548173ffffffffffffffffffffffffffffffffffffffff021916908373ffffffffffffffffffffffffffffffffffffffff16021790555060006003600060018152602001908152602001600020905067016345785d8a000081600001819055506138408160010181905550670de0b6b3a76400008160020181905550505050620001b7565b60008151905062000118816200019d565b92915050565b60006020828403121562000137576200013662000198565b5b6000620001478482850162000107565b91505092915050565b60006200015d8262000178565b9050919050565b6000620001718262000150565b9050919050565b600073ffffffffffffffffffffffffffffffffffffffff82169050919050565b600080fd5b620001a88162000164565b8114620001b457600080fd5b50565b611dd580620001c76000396000f3fe60806040526004361061012a5760003560e01c8063975542a1116100ab578063ad3de14c1161006f578063ad3de14c1461047a578063c2ee3a08146104a5578063c59abf9f146104d0578063c6313eb7146104fb578063f04f16ee1461052b578063fd5f33ec146105545761012a565b8063975542a11461034757806398807d84146103845780639dfb94ba146103c15780639e3cb488146103fe578063a8a267301461043d5761012a565b80636f49712b116100f25780636f49712b1461023a578063702376a71461027757806375c30a9f146102a25780638da5cb5b146102df57806394148d4f1461030a5761012a565b80630edc47371461012f57806320ebcd241461015a5780634aec48c9146101835780635013d729146101c05780635574f577146101fd575b600080fd5b34801561013b57600080fd5b5061014461057f565b6040516101519190611908565b60405180910390f35b34801561016657600080fd5b50610181600480360381019061017c91906115d0565b6105a5565b005b34801561018f57600080fd5b506101aa60048036038101906101a59190611563565b6105b4565b6040516101b791906119be565b60405180910390f35b3480156101cc57600080fd5b506101e760048036038101906101e291906115a3565b6105dc565b6040516101f491906119a3565b60405180910390f35b34801561020957600080fd5b50610224600480360381019061021f919061167d565b610627565b60405161023191906118d2565b60405180910390f35b34801561024657600080fd5b50610261600480360381019061025c9190611536565b610935565b60405161026e91906118d2565b60405180910390f35b34801561028357600080fd5b5061028c610955565b60405161029991906118d2565b60405180910390f35b3480156102ae57600080fd5b506102c960048036038101906102c49190611536565b6109a9565b6040516102d691906119be565b60405180910390f35b3480156102eb57600080fd5b506102f46109c1565b6040516103019190611872565b60405180910390f35b34801561031657600080fd5b50610331600480360381019061032c9190611650565b6109e5565b60405161033e91906118d2565b60405180910390f35b34801561035357600080fd5b5061036e60048036038101906103699190611650565b610b36565b60405161037b91906118d2565b60405180910390f35b34801561039057600080fd5b506103ab60048036038101906103a69190611536565b610ec8565b6040516103b891906119be565b60405180910390f35b3480156103cd57600080fd5b506103e860048036038101906103e39190611563565b610ee0565b6040516103f59190611a10565b60405180910390f35b34801561040a57600080fd5b50610425600480360381019061042091906115a3565b610f19565b604051610434939291906119d9565b60405180910390f35b34801561044957600080fd5b50610464600480360381019061045f9190611650565b610f43565b60405161047191906119be565b60405180910390f35b34801561048657600080fd5b5061048f610fa2565b60405161049c91906118b6565b60405180910390f35b3480156104b157600080fd5b506104ba611050565b6040516104c791906118ed565b60405180910390f35b3480156104dc57600080fd5b506104e5611076565b6040516104f291906119be565b60405180910390f35b6105156004803603810190610510919061167d565b6110bd565b60405161052291906118d2565b60405180910390f35b34801561053757600080fd5b50610552600480360381019061054d9190611610565b611400565b005b34801561056057600080fd5b5061056961140f565b60405161057691906119be565b60405180910390f35b600860009054906101000a900473ffffffffffffffffffffffffffffffffffffffff1681565b6105af8282611456565b505050565b600660205281600052604060002081605181106105d057600080fd5b01600091509150505481565b6105e46114b3565b6003600083815260200190815260200160002060405180606001604052908160008201548152602001600182015481526020016002820154815250509050919050565b600060011515600460003373ffffffffffffffffffffffffffffffffffffffff1673ffffffffffffffffffffffffffffffffffffffff16815260200190815260200160002060009054906101000a900460ff161515146106bc576040517f08c379a00000000000000000000000000000000000000000000000000000000081526004016106b390611983565b60405180910390fd5b6000600160003373ffffffffffffffffffffffffffffffffffffffff1673ffffffffffffffffffffffffffffffffffffffff1681526020019081526020016000208460ff166051811061071257610711611c36565b5b602091828204019190069054906101000a900460ff16905060008160ff161415610771576040517f08c379a000000000000000000000000000000000000000000000000000000000815260040161076890611963565b60405180910390fd5b60006107eb600660003373ffffffffffffffffffffffffffffffffffffffff1673ffffffffffffffffffffffffffffffffffffffff1681526020019081526020016000208660ff16605181106107ca576107c9611c36565b5b0154600360008760ff16815260200190815260200160002060010154611456565b90506000600660003373ffffffffffffffffffffffffffffffffffffffff1673ffffffffffffffffffffffffffffffffffffffff1681526020019081526020016000208660ff166051811061084357610842611c36565b5b01819055506000610854828661147f565b9050600860009054906101000a900473ffffffffffffffffffffffffffffffffffffffff1673ffffffffffffffffffffffffffffffffffffffff166340c10f1933836040518363ffffffff1660e01b81526004016108b392919061188d565b600060405180830381600087803b1580156108cd57600080fd5b505af11580156108e1573d6000803e3d6000fd5b505050503373ffffffffffffffffffffffffffffffffffffffff167fbcd3911ec0701f7d54f70486dd4db6fc7cd3094bcc04eb26bb17a4163310905860405160405180910390a26001935050505092915050565b60046020528060005260406000206000915054906101000a900460ff1681565b6000600460003373ffffffffffffffffffffffffffffffffffffffff1673ffffffffffffffffffffffffffffffffffffffff16815260200190815260200160002060009054906101000a900460ff16905090565b60026020528060005260406000206000915090505481565b60008054906101000a900473ffffffffffffffffffffffffffffffffffffffff1681565b600080600160003373ffffffffffffffffffffffffffffffffffffffff1673ffffffffffffffffffffffffffffffffffffffff1681526020019081526020016000208360ff1660518110610a3c57610a3b611c36565b5b602091828204019190069054906101000a900460ff16905060008160ff161415610a9b576040517f08c379a0000000000000000000000000000000000000000000000000000000008152600401610a9290611963565b60405180910390fd5b600360008260ff16815260200190815260200160002060010154610b2d600660003373ffffffffffffffffffffffffffffffffffffffff1673ffffffffffffffffffffffffffffffffffffffff1681526020019081526020016000208560ff1660518110610b0c57610b0b611c36565b5b0154600360008560ff16815260200190815260200160002060010154611456565b14915050919050565b600060011515600460003373ffffffffffffffffffffffffffffffffffffffff1673ffffffffffffffffffffffffffffffffffffffff16815260200190815260200160002060009054906101000a900460ff16151514610bcb576040517f08c379a0000000000000000000000000000000000000000000000000000000008152600401610bc290611983565b60405180910390fd5b6000600160003373ffffffffffffffffffffffffffffffffffffffff1673ffffffffffffffffffffffffffffffffffffffff1681526020019081526020016000208360ff1660518110610c2157610c20611c36565b5b602091828204019190069054906101000a900460ff16905060008160ff161415610c80576040517f08c379a0000000000000000000000000000000000000000000000000000000008152600401610c7790611963565b60405180910390fd5b610c8a8382610627565b503373ffffffffffffffffffffffffffffffffffffffff166108fc600360008460ff168152602001908152602001600020600001549081150290604051600060405180830381858888f19350505050158015610cea573d6000803e3d6000fd5b506000600160003373ffffffffffffffffffffffffffffffffffffffff1673ffffffffffffffffffffffffffffffffffffffff1681526020019081526020016000208460ff1660518110610d4157610d40611c36565b5b602091828204019190066101000a81548160ff021916908360ff160217905550600260003373ffffffffffffffffffffffffffffffffffffffff1673ffffffffffffffffffffffffffffffffffffffff1681526020019081526020016000206000815480929190610db190611b94565b91905055506000600260003373ffffffffffffffffffffffffffffffffffffffff1673ffffffffffffffffffffffffffffffffffffffff168152602001908152602001600020541415610e57576000600460003373ffffffffffffffffffffffffffffffffffffffff1673ffffffffffffffffffffffffffffffffffffffff16815260200190815260200160002060006101000a81548160ff0219169083151502179055505b3373ffffffffffffffffffffffffffffffffffffffff167f85082129d87b2fe11527cb1b3b7a520aeb5aa6913f88a3d8757fe40d1db02fdd600360008460ff16815260200190815260200160002060000154604051610eb691906119be565b60405180910390a26001915050919050565b60056020528060005260406000206000915090505481565b60016020528160005260406000208160518110610efc57600080fd5b60209182820401919006915091509054906101000a900460ff1681565b60036020528060005260406000206000915090508060000154908060010154908060020154905083565b6000600660003373ffffffffffffffffffffffffffffffffffffffff1673ffffffffffffffffffffffffffffffffffffffff1681526020019081526020016000208260ff1660518110610f9957610f98611c36565b5b01549050919050565b610faa6114d4565b600160003373ffffffffffffffffffffffffffffffffffffffff1673ffffffffffffffffffffffffffffffffffffffff168152602001908152602001600020605180602002604051908101604052809291908260518015611046576020028201916000905b82829054906101000a900460ff1660ff168152602001906001019060208260000104928301926001038202915080841161100f5790505b5050505050905090565b600760009054906101000a900473ffffffffffffffffffffffffffffffffffffffff1681565b6000600560003373ffffffffffffffffffffffffffffffffffffffff1673ffffffffffffffffffffffffffffffffffffffff16815260200190815260200160002054905090565b600081600360008260ff16815260200190815260200160002060000154341461111b576040517f08c379a000000000000000000000000000000000000000000000000000000000815260040161111290611943565b60405180910390fd5b83838060ff16600160003373ffffffffffffffffffffffffffffffffffffffff1673ffffffffffffffffffffffffffffffffffffffff1681526020019081526020016000208360ff166051811061117557611174611c36565b5b602091828204019190069054906101000a900460ff1660ff1614156111cf576040517f08c379a00000000000000000000000000000000000000000000000000000000081526004016111c690611923565b60405180910390fd5b60001515600460003373ffffffffffffffffffffffffffffffffffffffff1673ffffffffffffffffffffffffffffffffffffffff16815260200190815260200160002060009054906101000a900460ff1615151415611281576001600460003373ffffffffffffffffffffffffffffffffffffffff1673ffffffffffffffffffffffffffffffffffffffff16815260200190815260200160002060006101000a81548160ff0219169083151502179055505b84600160003373ffffffffffffffffffffffffffffffffffffffff1673ffffffffffffffffffffffffffffffffffffffff1681526020019081526020016000208760ff16605181106112d6576112d5611c36565b5b602091828204019190066101000a81548160ff021916908360ff160217905550600260003373ffffffffffffffffffffffffffffffffffffffff1673ffffffffffffffffffffffffffffffffffffffff168152602001908152602001600020600081548092919061134690611bbe565b919050555042600660003373ffffffffffffffffffffffffffffffffffffffff1673ffffffffffffffffffffffffffffffffffffffff1681526020019081526020016000208760ff16605181106113a05761139f611c36565b5b01819055503373ffffffffffffffffffffffffffffffffffffffff167febedb8b3c678666e7f36970bc8f57abf6d8fa2e828c0da91ea5b75bf68ed101a346040516113eb91906119be565b60405180910390a26001935050505092915050565b61140a828261147f565b505050565b6000600260003373ffffffffffffffffffffffffffffffffffffffff1673ffffffffffffffffffffffffffffffffffffffff16815260200190815260200160002054905090565b60008083426114659190611ac3565b90508281116114745780611476565b825b91505092915050565b600080600360008460ff16815260200190815260200160002060020154846114a79190611a69565b90508091505092915050565b60405180606001604052806000815260200160008152602001600081525090565b60405180610a200160405280605190602082028036833780820191505090505090565b60008135905061150681611d5a565b92915050565b60008135905061151b81611d71565b92915050565b60008135905061153081611d88565b92915050565b60006020828403121561154c5761154b611c65565b5b600061155a848285016114f7565b91505092915050565b6000806040838503121561157a57611579611c65565b5b6000611588858286016114f7565b92505060206115998582860161150c565b9150509250929050565b6000602082840312156115b9576115b8611c65565b5b60006115c78482850161150c565b91505092915050565b600080604083850312156115e7576115e6611c65565b5b60006115f58582860161150c565b92505060206116068582860161150c565b9150509250929050565b6000806040838503121561162757611626611c65565b5b60006116358582860161150c565b925050602061164685828601611521565b9150509250929050565b60006020828403121561166657611665611c65565b5b600061167484828501611521565b91505092915050565b6000806040838503121561169457611693611c65565b5b60006116a285828601611521565b92505060206116b385828601611521565b9150509250929050565b60006116c98383611854565b60208301905092915050565b6116de81611af7565b82525050565b6116ed81611a35565b6116f78184611a4d565b925061170282611a2b565b8060005b8381101561173357815161171a87826116bd565b965061172583611a40565b925050600181019050611706565b505050505050565b61174481611b09565b82525050565b61175381611b4c565b82525050565b61176281611b5e565b82525050565b6000611775602483611a58565b915061178082611c6a565b604082019050919050565b6000611798601883611a58565b91506117a382611cb9565b602082019050919050565b60006117bb600a83611a58565b91506117c682611ce2565b602082019050919050565b60006117de602683611a58565b91506117e982611d0b565b604082019050919050565b60608201600082015161180a6000850182611836565b50602082015161181d6020850182611836565b5060408201516118306040850182611836565b50505050565b61183f81611b35565b82525050565b61184e81611b35565b82525050565b61185d81611b3f565b82525050565b61186c81611b3f565b82525050565b600060208201905061188760008301846116d5565b92915050565b60006040820190506118a260008301856116d5565b6118af6020830184611845565b9392505050565b6000610a20820190506118cc60008301846116e4565b92915050565b60006020820190506118e7600083018461173b565b92915050565b6000602082019050611902600083018461174a565b92915050565b600060208201905061191d6000830184611759565b92915050565b6000602082019050818103600083015261193c81611768565b9050919050565b6000602082019050818103600083015261195c8161178b565b9050919050565b6000602082019050818103600083015261197c816117ae565b9050919050565b6000602082019050818103600083015261199c816117d1565b9050919050565b60006060820190506119b860008301846117f4565b92915050565b60006020820190506119d36000830184611845565b92915050565b60006060820190506119ee6000830186611845565b6119fb6020830185611845565b611a086040830184611845565b949350505050565b6000602082019050611a256000830184611863565b92915050565b6000819050919050565b600060519050919050565b6000602082019050919050565b600081905092915050565b600082825260208201905092915050565b6000611a7482611b35565b9150611a7f83611b35565b9250817fffffffffffffffffffffffffffffffffffffffffffffffffffffffffffffffff0483118215151615611ab857611ab7611c07565b5b828202905092915050565b6000611ace82611b35565b9150611ad983611b35565b925082821015611aec57611aeb611c07565b5b828203905092915050565b6000611b0282611b15565b9050919050565b60008115159050919050565b600073ffffffffffffffffffffffffffffffffffffffff82169050919050565b6000819050919050565b600060ff82169050919050565b6000611b5782611b70565b9050919050565b6000611b6982611b70565b9050919050565b6000611b7b82611b82565b9050919050565b6000611b8d82611b15565b9050919050565b6000611b9f82611b35565b91506000821415611bb357611bb2611c07565b5b600182039050919050565b6000611bc982611b35565b91507fffffffffffffffffffffffffffffffffffffffffffffffffffffffffffffffff821415611bfc57611bfb611c07565b5b600182019050919050565b7f4e487b7100000000000000000000000000000000000000000000000000000000600052601160045260246000fd5b7f4e487b7100000000000000000000000000000000000000000000000000000000600052603260045260246000fd5b600080fd5b7f596f75206861766520616c7265616479206275696c74207468697320616e642060008201527f6865726500000000000000000000000000000000000000000000000000000000602082015250565b7f446966666572656e742076616c75652061747461636865640000000000000000600082015250565b7f456d7074792074696c6500000000000000000000000000000000000000000000600082015250565b7f596f752063616e277420776974686472617720696620796f75206469646e277460008201527f207374616b650000000000000000000000000000000000000000000000000000602082015250565b611d6381611af7565b8114611d6e57600080fd5b50565b611d7a81611b35565b8114611d8557600080fd5b50565b611d9181611b3f565b8114611d9c57600080fd5b5056fea2646970667358221220cc1d44a1cafbb33c50d2d5e595700fb3e22c64bd150ca866aec6b01fbef32e9e64736f6c63430008070033",
  "immutableReferences": {},
  "source": "// SPDX-License-Identifier: GPL-3.0\r\n\r\npragma solidity ^0.8.7; \r\n\r\nimport \"./Builder.sol\";\r\n\r\ncontract TestBuilder is Builder  {\r\n\r\n    constructor(ISeedToken _SEED) Builder(_SEED) {}\r\n\r\n    function test_calculateReward(uint256 _stkTime, uint8 _sId) public view {\r\n        calculateReward(_stkTime, _sId);\r\n    }\r\n\r\n    function test_calculateYieldTime(uint256 _start, uint256 _bound) public view {\r\n        calculateYieldTime(_start,  _bound);\r\n    }\r\n}\r\n",
  "sourcePath": "C:/Github/SeedFarm/contracts/TestBuilder.sol",
  "compiler": {
    "name": "solc",
    "version": "0.8.7+commit.e28d00a7.Emscripten.clang"
  },
  "schemaVersion": "3.3.4",
  "updatedAt": "2021-12-29T20:36:20.369Z",
  "devdoc": {
    "kind": "dev",
    "methods": {
      "getHouses()": {
        "details": "Returns amount of built houses. "
      },
      "getIsStaking()": {
        "details": "Returns isStaking mapping. "
      },
      "getMap()": {
        "details": "Returns player's gamemap. "
      },
      "getStaked()": {
        "details": "Returns amount of staked tokens. "
      },
      "getStakedTime(uint8)": {
        "details": "Returns time when structure was staked. "
      },
      "getStructure(uint256)": {
        "details": "Returns in-game structure.   "
      },
      "isReadyForWithdraw(uint8)": {
        "details": "Returns boolean whether building finished accumulating tokens or not.  "
      },
      "placeStructure(uint8,uint8)": {
        "details": "Places a new structure on the map and sets up farming.   Returns a boolean value indicating whether the operation succeeded. Emits a {Stake} event. Requirements: - value attached must be equal to `_sid' price.  - `_sId` at `_pos` must be different from current value."
      },
      "removeStructure(uint8)": {
        "details": "Removes a structure from the map, stops farming, returns staked tokens.    Returns a boolean value indicating whether the operation succeeded. Emits an {Unstake} event. Requirements: - sender must have tokens staked. "
      },
      "withdrawTileYield(uint8,uint8)": {
        "details": "Withdraw yield of {Seed} from the structure.   Returns a boolean value indicating whether the operation succeeded. Emits a {YieldWithdraw} event. Requirements: - sender must have tokens staked. "
      }
    },
    "version": 1
  },
  "userdoc": {
    "kind": "user",
    "methods": {},
    "version": 1
  }
}